{
  "_format": "hh-sol-artifact-1",
  "contractName": "SoulToken",
  "sourceName": "contracts/SoulToken.sol",
  "abi": [
    {
      "inputs": [
        {
          "internalType": "uint256",
          "name": "_fee",
          "type": "uint256"
        }
      ],
      "stateMutability": "nonpayable",
      "type": "constructor"
    },
    {
      "anonymous": false,
      "inputs": [
        {
          "indexed": true,
          "internalType": "address",
          "name": "owner",
          "type": "address"
        },
        {
          "indexed": true,
          "internalType": "address",
          "name": "approved",
          "type": "address"
        },
        {
          "indexed": true,
          "internalType": "uint256",
          "name": "tokenId",
          "type": "uint256"
        }
      ],
      "name": "Approval",
      "type": "event"
    },
    {
      "anonymous": false,
      "inputs": [
        {
          "indexed": true,
          "internalType": "address",
          "name": "owner",
          "type": "address"
        },
        {
          "indexed": true,
          "internalType": "address",
          "name": "operator",
          "type": "address"
        },
        {
          "indexed": false,
          "internalType": "bool",
          "name": "approved",
          "type": "bool"
        }
      ],
      "name": "ApprovalForAll",
      "type": "event"
    },
    {
      "anonymous": false,
      "inputs": [
        {
          "indexed": true,
          "internalType": "address",
          "name": "from",
          "type": "address"
        },
        {
          "indexed": true,
          "internalType": "address",
          "name": "to",
          "type": "address"
        },
        {
          "indexed": false,
          "internalType": "bytes32",
          "name": "proposeId",
          "type": "bytes32"
        },
        {
          "indexed": false,
          "internalType": "uint256",
          "name": "eventId",
          "type": "uint256"
        }
      ],
      "name": "MakePropose",
      "type": "event"
    },
    {
      "anonymous": false,
      "inputs": [
        {
          "indexed": true,
          "internalType": "address",
          "name": "previousOwner",
          "type": "address"
        },
        {
          "indexed": true,
          "internalType": "address",
          "name": "newOwner",
          "type": "address"
        }
      ],
      "name": "OwnershipTransferred",
      "type": "event"
    },
    {
      "anonymous": false,
      "inputs": [
        {
          "indexed": true,
          "internalType": "uint256",
          "name": "tokenId",
          "type": "uint256"
        },
        {
          "indexed": true,
          "internalType": "string",
          "name": "tokenURI",
          "type": "string"
        }
      ],
      "name": "TokenMinted",
      "type": "event"
    },
    {
      "anonymous": false,
      "inputs": [
        {
          "indexed": true,
          "internalType": "address",
          "name": "from",
          "type": "address"
        },
        {
          "indexed": true,
          "internalType": "address",
          "name": "to",
          "type": "address"
        },
        {
          "indexed": true,
          "internalType": "uint256",
          "name": "tokenId",
          "type": "uint256"
        }
      ],
      "name": "Transfer",
      "type": "event"
    },
    {
      "anonymous": false,
      "inputs": [
        {
          "indexed": false,
          "internalType": "uint256",
          "name": "tokenId",
          "type": "uint256"
        },
        {
          "indexed": false,
          "internalType": "address",
          "name": "withnessAddr",
          "type": "address"
        }
      ],
      "name": "Witness",
      "type": "event"
    },
    {
      "inputs": [
        {
          "internalType": "address",
          "name": "to",
          "type": "address"
        },
        {
          "internalType": "uint256",
          "name": "tokenId",
          "type": "uint256"
        }
      ],
      "name": "approve",
      "outputs": [],
      "stateMutability": "nonpayable",
      "type": "function"
    },
    {
      "inputs": [
        {
          "internalType": "bytes32",
          "name": "_proposeHash",
          "type": "bytes32"
        }
      ],
      "name": "approvePropose",
      "outputs": [],
      "stateMutability": "nonpayable",
      "type": "function"
    },
    {
      "inputs": [
        {
          "internalType": "address",
          "name": "owner",
          "type": "address"
        }
      ],
      "name": "balanceOf",
      "outputs": [
        {
          "internalType": "uint256",
          "name": "",
          "type": "uint256"
        }
      ],
      "stateMutability": "view",
      "type": "function"
    },
    {
      "inputs": [],
      "name": "fee",
      "outputs": [
        {
          "internalType": "uint256",
          "name": "",
          "type": "uint256"
        }
      ],
      "stateMutability": "view",
      "type": "function"
    },
    {
      "inputs": [
        {
          "internalType": "uint256",
          "name": "tokenId",
          "type": "uint256"
        }
      ],
      "name": "getApproved",
      "outputs": [
        {
          "internalType": "address",
          "name": "",
          "type": "address"
        }
      ],
      "stateMutability": "view",
      "type": "function"
    },
    {
      "inputs": [
        {
          "internalType": "address",
          "name": "_addr",
          "type": "address"
        }
      ],
      "name": "getproposeIdByAddr",
      "outputs": [
        {
          "internalType": "bytes32[]",
          "name": "",
          "type": "bytes32[]"
        }
      ],
      "stateMutability": "view",
      "type": "function"
    },
    {
      "inputs": [
        {
          "internalType": "address",
          "name": "owner",
          "type": "address"
        },
        {
          "internalType": "address",
          "name": "operator",
          "type": "address"
        }
      ],
      "name": "isApprovedForAll",
      "outputs": [
        {
          "internalType": "bool",
          "name": "",
          "type": "bool"
        }
      ],
      "stateMutability": "view",
      "type": "function"
    },
    {
      "inputs": [],
      "name": "name",
      "outputs": [
        {
          "internalType": "string",
          "name": "",
          "type": "string"
        }
      ],
      "stateMutability": "view",
      "type": "function"
    },
    {
      "inputs": [],
      "name": "owner",
      "outputs": [
        {
          "internalType": "address",
          "name": "",
          "type": "address"
        }
      ],
      "stateMutability": "view",
      "type": "function"
    },
    {
      "inputs": [
        {
          "internalType": "uint256",
          "name": "tokenId",
          "type": "uint256"
        }
      ],
      "name": "ownerOf",
      "outputs": [
        {
          "internalType": "address",
          "name": "",
          "type": "address"
        }
      ],
      "stateMutability": "view",
      "type": "function"
    },
    {
      "inputs": [
        {
          "internalType": "address",
          "name": "",
          "type": "address"
        },
        {
          "internalType": "uint256",
          "name": "",
          "type": "uint256"
        }
      ],
      "name": "pendingConfirm",
      "outputs": [
        {
          "internalType": "bytes32",
          "name": "",
          "type": "bytes32"
        }
      ],
      "stateMutability": "view",
      "type": "function"
    },
    {
      "inputs": [
        {
          "internalType": "address",
          "name": "_party",
          "type": "address"
        },
        {
          "internalType": "uint256",
          "name": "index",
          "type": "uint256"
        }
      ],
      "name": "pendingConfirmByIndex",
      "outputs": [
        {
          "internalType": "bytes32",
          "name": "",
          "type": "bytes32"
        }
      ],
      "stateMutability": "view",
      "type": "function"
    },
    {
      "inputs": [
        {
          "internalType": "address",
          "name": "",
          "type": "address"
        }
      ],
      "name": "pendingConfirmCount",
      "outputs": [
        {
          "internalType": "uint256",
          "name": "",
          "type": "uint256"
        }
      ],
      "stateMutability": "view",
      "type": "function"
    },
    {
      "inputs": [
        {
          "internalType": "address",
          "name": "",
          "type": "address"
        },
        {
          "internalType": "bytes32",
          "name": "",
          "type": "bytes32"
        }
      ],
      "name": "pendingConfirmHashIndex",
      "outputs": [
        {
          "internalType": "uint256",
          "name": "",
          "type": "uint256"
        }
      ],
      "stateMutability": "view",
      "type": "function"
    },
    {
      "inputs": [
        {
          "internalType": "address",
          "name": "_party",
          "type": "address"
        },
        {
          "internalType": "bytes32",
          "name": "_hashId",
          "type": "bytes32"
        }
      ],
      "name": "pendingConfirmIndexByHash",
      "outputs": [
        {
          "internalType": "uint256",
          "name": "",
          "type": "uint256"
        }
      ],
      "stateMutability": "view",
      "type": "function"
    },
    {
      "inputs": [
        {
          "internalType": "address",
          "name": "_from",
          "type": "address"
        },
        {
          "internalType": "address",
          "name": "_to",
          "type": "address"
        },
        {
          "internalType": "uint256",
          "name": "_eventId",
          "type": "uint256"
        }
      ],
      "name": "proposeExists",
      "outputs": [
        {
          "internalType": "bool",
          "name": "",
          "type": "bool"
        }
      ],
      "stateMutability": "view",
      "type": "function"
    },
    {
      "inputs": [
        {
          "internalType": "bytes32",
          "name": "_proposeHash",
          "type": "bytes32"
        }
      ],
      "name": "proposeHashExists",
      "outputs": [
        {
          "internalType": "bool",
          "name": "",
          "type": "bool"
        }
      ],
      "stateMutability": "view",
      "type": "function"
    },
    {
      "inputs": [
        {
          "internalType": "address",
          "name": "",
          "type": "address"
        },
        {
          "internalType": "uint256",
          "name": "",
          "type": "uint256"
        }
      ],
      "name": "proposeIdByAddr",
      "outputs": [
        {
          "internalType": "bytes32",
          "name": "",
          "type": "bytes32"
        }
      ],
      "stateMutability": "view",
      "type": "function"
    },
    {
      "inputs": [
        {
          "internalType": "bytes32",
          "name": "",
          "type": "bytes32"
        }
      ],
      "name": "proposeInfo",
      "outputs": [
        {
          "internalType": "address",
          "name": "from",
          "type": "address"
        },
        {
          "internalType": "address",
          "name": "to",
          "type": "address"
        },
        {
          "internalType": "uint256",
          "name": "eventId",
          "type": "uint256"
        },
        {
          "internalType": "string",
          "name": "tokenURI",
          "type": "string"
        },
        {
          "internalType": "bool",
          "name": "acceptStatus",
          "type": "bool"
        },
        {
          "internalType": "bool",
          "name": "mutualMint",
          "type": "bool"
        },
        {
          "internalType": "uint256",
          "name": "createAt",
          "type": "uint256"
        },
        {
          "internalType": "uint256",
          "name": "confirmAt",
          "type": "uint256"
        }
      ],
      "stateMutability": "view",
      "type": "function"
    },
    {
      "inputs": [],
      "name": "renounceOwnership",
      "outputs": [],
      "stateMutability": "nonpayable",
      "type": "function"
    },
    {
      "inputs": [
        {
          "internalType": "address",
          "name": "from",
          "type": "address"
        },
        {
          "internalType": "address",
          "name": "to",
          "type": "address"
        },
        {
          "internalType": "uint256",
          "name": "tokenId",
          "type": "uint256"
        }
      ],
      "name": "safeTransferFrom",
      "outputs": [],
      "stateMutability": "nonpayable",
      "type": "function"
    },
    {
      "inputs": [
        {
          "internalType": "address",
          "name": "from",
          "type": "address"
        },
        {
          "internalType": "address",
          "name": "to",
          "type": "address"
        },
        {
          "internalType": "uint256",
          "name": "tokenId",
          "type": "uint256"
        },
        {
          "internalType": "bytes",
          "name": "_data",
          "type": "bytes"
        }
      ],
      "name": "safeTransferFrom",
      "outputs": [],
      "stateMutability": "nonpayable",
      "type": "function"
    },
    {
      "inputs": [
        {
          "internalType": "address[]",
          "name": "_parties",
          "type": "address[]"
        },
        {
          "internalType": "uint256",
          "name": "_eventId",
          "type": "uint256"
        },
        {
          "internalType": "bool",
          "name": "_mutualMint",
          "type": "bool"
        },
        {
          "internalType": "string",
          "name": "_tokenURI",
          "type": "string"
        }
      ],
      "name": "sendBatchRequest",
      "outputs": [],
      "stateMutability": "payable",
      "type": "function"
    },
    {
      "inputs": [
        {
          "internalType": "address",
          "name": "_party",
          "type": "address"
        },
        {
          "internalType": "uint256",
          "name": "_eventId",
          "type": "uint256"
        },
        {
          "internalType": "bool",
          "name": "_mutualMint",
          "type": "bool"
        },
        {
          "internalType": "string",
          "name": "_tokenURI",
          "type": "string"
        }
      ],
      "name": "sendRequest",
      "outputs": [],
      "stateMutability": "payable",
      "type": "function"
    },
    {
      "inputs": [
        {
          "internalType": "address",
          "name": "operator",
          "type": "address"
        },
        {
          "internalType": "bool",
          "name": "approved",
          "type": "bool"
        }
      ],
      "name": "setApprovalForAll",
      "outputs": [],
      "stateMutability": "nonpayable",
      "type": "function"
    },
    {
      "inputs": [
        {
          "internalType": "bytes4",
          "name": "interfaceId",
          "type": "bytes4"
        }
      ],
      "name": "supportsInterface",
      "outputs": [
        {
          "internalType": "bool",
          "name": "",
          "type": "bool"
        }
      ],
      "stateMutability": "view",
      "type": "function"
    },
    {
      "inputs": [],
      "name": "symbol",
      "outputs": [
        {
          "internalType": "string",
          "name": "",
          "type": "string"
        }
      ],
      "stateMutability": "view",
      "type": "function"
    },
    {
      "inputs": [
        {
          "internalType": "uint256",
          "name": "tokenId",
          "type": "uint256"
        }
      ],
      "name": "tokenURI",
      "outputs": [
        {
          "internalType": "string",
          "name": "",
          "type": "string"
        }
      ],
      "stateMutability": "view",
      "type": "function"
    },
    {
      "inputs": [
        {
          "internalType": "address",
          "name": "from",
          "type": "address"
        },
        {
          "internalType": "address",
          "name": "to",
          "type": "address"
        },
        {
          "internalType": "uint256",
          "name": "tokenId",
          "type": "uint256"
        }
      ],
      "name": "transferFrom",
      "outputs": [],
      "stateMutability": "nonpayable",
      "type": "function"
    },
    {
      "inputs": [
        {
          "internalType": "address",
          "name": "newOwner",
          "type": "address"
        }
      ],
      "name": "transferOwnership",
      "outputs": [],
      "stateMutability": "nonpayable",
      "type": "function"
    },
    {
      "inputs": [],
      "name": "withdraw",
      "outputs": [],
      "stateMutability": "nonpayable",
      "type": "function"
    },
    {
      "inputs": [
        {
          "internalType": "uint256",
          "name": "tokenId",
          "type": "uint256"
        }
      ],
      "name": "witness",
      "outputs": [],
      "stateMutability": "nonpayable",
      "type": "function"
    }
  ],
  "bytecode": "0x60806040523480156200001157600080fd5b5060405162002c2f38038062002c2f8339810160408190526200003491620001bd565b604080518082018252600981526813585c9c9e54dbdd5b60ba1b6020808301918252835180850190945260038452624d534f60e81b908401528151919291620000809160009162000117565b5080516200009690600190602084019062000117565b505050620000b3620000ad620000c160201b60201c565b620000c5565b6001600855600f5562000213565b3390565b600780546001600160a01b038381166001600160a01b0319831681179093556040519116919082907f8be0079c531659141344cd1fd0a4f28419497f9722a3daafe3b4186f6b6457e090600090a35050565b8280546200012590620001d6565b90600052602060002090601f01602090048101928262000149576000855562000194565b82601f106200016457805160ff191683800117855562000194565b8280016001018555821562000194579182015b828111156200019457825182559160200191906001019062000177565b50620001a2929150620001a6565b5090565b5b80821115620001a25760008155600101620001a7565b600060208284031215620001cf578081fd5b5051919050565b600281046001821680620001eb57607f821691505b602082108114156200020d57634e487b7160e01b600052602260045260246000fd5b50919050565b612a0c80620002236000396000f3fe6080604052600436106101e35760003560e01c8063715018a611610102578063a22cb46511610095578063ddca3f4311610064578063ddca3f4314610577578063e985e9c51461058c578063f02b3ad0146105ac578063f2fde38b146105cc576101e3565b8063a22cb465146104ea578063b88d4fde1461050a578063c87b56dd1461052a578063d1a8daed1461054a576101e3565b80638da5cb5b116100d15780638da5cb5b1461046c57806395d89b41146104815780639b9419c414610496578063a1dead29146104b6576101e3565b8063715018a61461041157806379d8912a1461042657806383608d8c146104395780638494543314610459576101e3565b806323b872dd1161017a5780634ac1d82b116101495780634ac1d82b146103915780635b6fcedd146103b15780636352211e146103d157806370a08231146103f1576101e3565b806323b872dd1461031c5780633ccfd60b1461033c57806342842e0e1461035157806344d2882314610371576101e3565b8063095ea7b3116101b6578063095ea7b31461028d5780630ce3fd7b146102af5780630fe96a52146102dc57806319eeb63b146102fc576101e3565b806301ffc9a7146101e857806306fdde031461021e57806307298bd914610240578063081812fc14610260575b600080fd5b3480156101f457600080fd5b50610208610203366004612031565b6105ec565b60405161021591906121ff565b60405180910390f35b34801561022a57600080fd5b50610233610634565b6040516102159190612221565b34801561024c57600080fd5b5061020861025b366004611ddb565b6106c6565b34801561026c57600080fd5b5061028061027b366004612019565b6106fc565b604051610215919061210e565b34801561029957600080fd5b506102ad6102a8366004611eb8565b610748565b005b3480156102bb57600080fd5b506102cf6102ca366004611d8f565b6107e0565b604051610215919061220a565b3480156102e857600080fd5b506102086102f7366004612019565b6107f2565b34801561030857600080fd5b506102cf610317366004611eb8565b61080f565b34801561032857600080fd5b506102ad610337366004611ddb565b610837565b34801561034857600080fd5b506102ad61086f565b34801561035d57600080fd5b506102ad61036c366004611ddb565b6108dd565b34801561037d57600080fd5b506102cf61038c366004611eb8565b6108f8565b34801561039d57600080fd5b506102cf6103ac366004611eb8565b610915565b3480156103bd57600080fd5b506102cf6103cc366004611eb8565b610932565b3480156103dd57600080fd5b506102806103ec366004612019565b61095a565b3480156103fd57600080fd5b506102cf61040c366004611d8f565b61098f565b34801561041d57600080fd5b506102ad6109d3565b6102ad610434366004611ee1565b610a1e565b34801561044557600080fd5b506102ad610454366004612019565b610aa6565b6102ad610467366004611f3b565b610c29565b34801561047857600080fd5b50610280610cfd565b34801561048d57600080fd5b50610233610d0c565b3480156104a257600080fd5b506102ad6104b1366004612019565b610d1b565b3480156104c257600080fd5b506104d66104d1366004612019565b610d85565b60405161021598979695949392919061215f565b3480156104f657600080fd5b506102ad610505366004611e8f565b610e63565b34801561051657600080fd5b506102ad610525366004611e16565b610e79565b34801561053657600080fd5b50610233610545366004612019565b610eb8565b34801561055657600080fd5b5061056a610565366004611d8f565b610fd9565b60405161021591906121bb565b34801561058357600080fd5b506102cf611045565b34801561059857600080fd5b506102086105a7366004611da9565b61104b565b3480156105b857600080fd5b506102cf6105c7366004611eb8565b611079565b3480156105d857600080fd5b506102ad6105e7366004611d8f565b6110aa565b60006001600160e01b031982166380ac58cd60e01b148061061d57506001600160e01b03198216635b5e139f60e01b145b8061062c575061062c82611118565b90505b919050565b60606000805461064390612914565b80601f016020809104026020016040519081016040528092919081815260200182805461066f90612914565b80156106bc5780601f10610691576101008083540402835291602001916106bc565b820191906000526020600020905b81548152906001019060200180831161069f57829003601f168201915b5050505050905090565b6000806106d4858585611131565b6000908152600a60205260409020546001600160a01b03908116908616149150509392505050565b600061070782611167565b61072c5760405162461bcd60e51b81526004016107239061264b565b60405180910390fd5b506000908152600460205260409020546001600160a01b031690565b60006107538261095a565b9050806001600160a01b0316836001600160a01b031614156107875760405162461bcd60e51b815260040161072390612764565b806001600160a01b0316610799611184565b6001600160a01b031614806107b557506107b5816105a7611184565b6107d15760405162461bcd60e51b81526004016107239061245a565b6107db8383611188565b505050565b600d6020526000908152604090205481565b6000908152600a60205260409020546001600160a01b0316151590565b6001600160a01b03919091166000908152600e60209081526040808320938352929052205490565b610848610842611184565b826111f6565b6108645760405162461bcd60e51b8152600401610723906127a5565b6107db838383611273565b610877611184565b6001600160a01b0316610888610cfd565b6001600160a01b0316146108ae5760405162461bcd60e51b815260040161072390612697565b60405133904780156108fc02916000818181858888f193505050501580156108da573d6000803e3d6000fd5b50565b6107db83838360405180602001604052806000815250610e79565b600c60209081526000928352604080842090915290825290205481565b600e60209081526000928352604080842090915290825290205481565b6001600160a01b03919091166000908152600c60209081526040808320938352929052205490565b6000818152600260205260408120546001600160a01b03168061062c5760405162461bcd60e51b815260040161072390612501565b60006001600160a01b0382166109b75760405162461bcd60e51b8152600401610723906124b7565b506001600160a01b031660009081526003602052604090205490565b6109db611184565b6001600160a01b03166109ec610cfd565b6001600160a01b031614610a125760405162461bcd60e51b815260040161072390612697565b610a1c60006113a0565b565b60026008541415610a415760405162461bcd60e51b81526004016107239061282d565b6002600855610a513385856106c6565b15610a6e5760405162461bcd60e51b815260040161072390612423565b600f543414610a8f5760405162461bcd60e51b8152600401610723906123fa565b610a9b848484846113f2565b505060016008555050565b60026008541415610ac95760405162461bcd60e51b81526004016107239061282d565b6002600855610ad7816107f2565b610af35760405162461bcd60e51b8152600401610723906125cd565b6000818152600a60205260409020600481015460ff1615610b265760405162461bcd60e51b81526004016107239061237e565b60048101805460ff19166001179055426006820155610b45338361156a565b6004810154610100900460ff1615610bfc578054600382018054610bfa926001600160a01b03169190610b7790612914565b80601f0160208091040260200160405190810160405280929190818152602001828054610ba390612914565b8015610bf05780601f10610bc557610100808354040283529160200191610bf0565b820191906000526020600020905b815481529060010190602001808311610bd357829003601f168201915b5050505050611660565b505b6001810154600382018054610c1f926001600160a01b03169190610b7790612914565b5050600160085550565b60026008541415610c4c5760405162461bcd60e51b81526004016107239061282d565b600260085560005b8451811015610cf1576000858281518110610c7f57634e487b7160e01b600052603260045260246000fd5b60200260200101519050610c943382876106c6565b15610cb15760405162461bcd60e51b815260040161072390612423565b600f543414610cd25760405162461bcd60e51b8152600401610723906123fa565b610cde818686866113f2565b5080610ce98161294f565b915050610c54565b50506001600855505050565b6007546001600160a01b031690565b60606001805461064390612914565b60026008541415610d3e5760405162461bcd60e51b81526004016107239061282d565b60026008556040517fae1bcbdf2de9df4313d4932816e3638b4de0908a210e6fba47ea7d529034ca3e90610d759083903390612864565b60405180910390a1506001600855565b600a6020526000908152604090208054600182015460028301546003840180546001600160a01b039485169594909316939192610dc190612914565b80601f0160208091040260200160405190810160405280929190818152602001828054610ded90612914565b8015610e3a5780601f10610e0f57610100808354040283529160200191610e3a565b820191906000526020600020905b815481529060010190602001808311610e1d57829003601f168201915b50505060048401546005850154600690950154939460ff80831695610100909304169350915088565b610e75610e6e611184565b83836116d5565b5050565b610e8a610e84611184565b836111f6565b610ea65760405162461bcd60e51b8152600401610723906127a5565b610eb284848484611778565b50505050565b6060610ec382611167565b610edf5760405162461bcd60e51b8152600401610723906125fa565b60008281526006602052604081208054610ef890612914565b80601f0160208091040260200160405190810160405280929190818152602001828054610f2490612914565b8015610f715780601f10610f4657610100808354040283529160200191610f71565b820191906000526020600020905b815481529060010190602001808311610f5457829003601f168201915b505050505090506000610f826117ab565b9050805160001415610f965750905061062f565b815115610fc8578082604051602001610fb09291906120df565b6040516020818303038152906040529250505061062f565b610fd1846117bd565b949350505050565b6001600160a01b0381166000908152600b602090815260409182902080548351818402810184019094528084526060939283018282801561103957602002820191906000526020600020905b815481526020019060010190808311611025575b50505050509050919050565b600f5481565b6001600160a01b03918216600090815260056020908152604080832093909416825291909152205460ff1690565b600b602052816000526040600020818154811061109557600080fd5b90600052602060002001600091509150505481565b6110b2611184565b6001600160a01b03166110c3610cfd565b6001600160a01b0316146110e95760405162461bcd60e51b815260040161072390612697565b6001600160a01b03811661110f5760405162461bcd60e51b815260040161072390612286565b6108da816113a0565b6001600160e01b031981166301ffc9a760e01b14919050565b600083838360405160200161114893929190612095565b6040516020818303038152906040528051906020012090509392505050565b6000908152600260205260409020546001600160a01b0316151590565b3390565b600081815260046020526040902080546001600160a01b0319166001600160a01b03841690811790915581906111bd8261095a565b6001600160a01b03167f8c5be1e5ebec7d5bd14f71427d1e84f3dd0314c0f7b2291e5b200ac8c7c3b92560405160405180910390a45050565b600061120182611167565b61121d5760405162461bcd60e51b8152600401610723906123ae565b60006112288361095a565b9050806001600160a01b0316846001600160a01b031614806112635750836001600160a01b0316611258846106fc565b6001600160a01b0316145b80610fd15750610fd1818561104b565b826001600160a01b03166112868261095a565b6001600160a01b0316146112ac5760405162461bcd60e51b8152600401610723906126cc565b6001600160a01b0382166112d25760405162461bcd60e51b815260040161072390612303565b6112dd838383611840565b6112e8600082611188565b6001600160a01b03831660009081526003602052604081208054600192906113119084906128d1565b90915550506001600160a01b038216600090815260036020526040812080546001929061133f9084906128a5565b909155505060008181526002602052604080822080546001600160a01b0319166001600160a01b0386811691821790925591518493918716917fddf252ad1be2c89b69c2b068fc378daa952ba7f163c4a11628f55a4df523b3ef91a4505050565b600780546001600160a01b038381166001600160a01b0319831681179093556040519116919082907f8be0079c531659141344cd1fd0a4f28419497f9722a3daafe3b4186f6b6457e090600090a35050565b60006113ff338686611131565b60408051610100810182523381526001600160a01b03888116602080840191825243848601908152606085018981526000608087018190528b151560a08801524260c088015260e08701819052888152600a845296909620855181549086166001600160a01b0319918216178255935160018201805491909616941693909317909355915160028201559251805194955091936114a29260038501920190611c58565b50608082015160048201805460a085015115156101000261ff001993151560ff19909216919091179290921691909117905560c0820151600582015560e090910151600690910155336000908152600b60209081526040822080546001810182559083529120018190556115168582611885565b846001600160a01b0316336001600160a01b03167fc07e9c053c6fe0cb662c7a0ff5a607e0fac86213d7d37d11d478249862485192838760405161155b929190612213565b60405180910390a35050505050565b6001600160a01b0382166000908152600d602052604081205461158f906001906128d1565b6001600160a01b0384166000908152600e602090815260408083208684529091529020549091508082146115ff576001600160a01b0384166000818152600c60209081526040808320868452825280832054858452818420819055938352600e8252808320938352929052208190555b6001600160a01b0384166000818152600e602090815260408083208784528252808320839055838352600c82528083208684528252808320839055928252600d90529081208054600192906116559084906128d1565b909155505050505050565b600061166c60096118ec565b600061167860096118f5565b905061168484826118f9565b61168e81846119d8565b8260405161169c91906120c3565b6040519081900381209082907fac60a09674f049f6a63c51f373fb7febaf74a582f3a9f82cd39275be73988d2190600090a39392505050565b816001600160a01b0316836001600160a01b031614156117075760405162461bcd60e51b815260040161072390612347565b6001600160a01b0383811660008181526005602090815260408083209487168084529490915290819020805460ff1916851515179055517f17307eab39ab6107e8899845ad3d59bd9653f200f220920489ca2b5937696c319061176b9085906121ff565b60405180910390a3505050565b611783848484611273565b61178f84848484611a1c565b610eb25760405162461bcd60e51b815260040161072390612234565b60408051602081019091526000815290565b60606117c882611167565b6117e45760405162461bcd60e51b815260040161072390612715565b60006117ee6117ab565b9050600081511161180e5760405180602001604052806000815250611839565b8061181884611b37565b6040516020016118299291906120df565b6040516020818303038152906040525b9392505050565b61184b8383836107db565b6001600160a01b03821661185e576107db565b6001600160a01b038316156107db5760405162461bcd60e51b8152600401610723906127f6565b6001600160a01b0382166000818152600c60209081526040808320600d808452828520805486529184528285208790558585528154600e855283862088875285529285208390559484529390915260019291906118e39084906128a5565b90915550505050565b80546001019055565b5490565b6001600160a01b03821661191f5760405162461bcd60e51b815260040161072390612598565b61192881611167565b156119455760405162461bcd60e51b8152600401610723906122cc565b61195160008383611840565b6001600160a01b038216600090815260036020526040812080546001929061197a9084906128a5565b909155505060008181526002602052604080822080546001600160a01b0319166001600160a01b03861690811790915590518392907fddf252ad1be2c89b69c2b068fc378daa952ba7f163c4a11628f55a4df523b3ef908290a45050565b6119e182611167565b6119fd5760405162461bcd60e51b81526004016107239061254a565b600082815260066020908152604090912082516107db92840190611c58565b6000611a30846001600160a01b0316611c52565b15611b2c57836001600160a01b031663150b7a02611a4c611184565b8786866040518563ffffffff1660e01b8152600401611a6e9493929190612122565b602060405180830381600087803b158015611a8857600080fd5b505af1925050508015611ab8575060408051601f3d908101601f19168201909252611ab59181019061204d565b60015b611b12573d808015611ae6576040519150601f19603f3d011682016040523d82523d6000602084013e611aeb565b606091505b508051611b0a5760405162461bcd60e51b815260040161072390612234565b805181602001fd5b6001600160e01b031916630a85bd0160e11b149050610fd1565b506001949350505050565b606081611b5c57506040805180820190915260018152600360fc1b602082015261062f565b8160005b8115611b865780611b708161294f565b9150611b7f9050600a836128bd565b9150611b60565b60008167ffffffffffffffff811115611baf57634e487b7160e01b600052604160045260246000fd5b6040519080825280601f01601f191660200182016040528015611bd9576020820181803683370190505b5090505b8415610fd157611bee6001836128d1565b9150611bfb600a8661296a565b611c069060306128a5565b60f81b818381518110611c2957634e487b7160e01b600052603260045260246000fd5b60200101906001600160f81b031916908160001a905350611c4b600a866128bd565b9450611bdd565b3b151590565b828054611c6490612914565b90600052602060002090601f016020900481019282611c865760008555611ccc565b82601f10611c9f57805160ff1916838001178555611ccc565b82800160010185558215611ccc579182015b82811115611ccc578251825591602001919060010190611cb1565b50611cd8929150611cdc565b5090565b5b80821115611cd85760008155600101611cdd565b600067ffffffffffffffff831115611d0b57611d0b6129aa565b611d1e601f8401601f191660200161287b565b9050828152838383011115611d3257600080fd5b828260208301376000602084830101529392505050565b80356001600160a01b038116811461062f57600080fd5b8035801515811461062f57600080fd5b600082601f830112611d80578081fd5b61183983833560208501611cf1565b600060208284031215611da0578081fd5b61183982611d49565b60008060408385031215611dbb578081fd5b611dc483611d49565b9150611dd260208401611d49565b90509250929050565b600080600060608486031215611def578081fd5b611df884611d49565b9250611e0660208501611d49565b9150604084013590509250925092565b60008060008060808587031215611e2b578081fd5b611e3485611d49565b9350611e4260208601611d49565b925060408501359150606085013567ffffffffffffffff811115611e64578182fd5b8501601f81018713611e74578182fd5b611e8387823560208401611cf1565b91505092959194509250565b60008060408385031215611ea1578182fd5b611eaa83611d49565b9150611dd260208401611d60565b60008060408385031215611eca578182fd5b611ed383611d49565b946020939093013593505050565b60008060008060808587031215611ef6578384fd5b611eff85611d49565b935060208501359250611f1460408601611d60565b9150606085013567ffffffffffffffff811115611f2f578182fd5b611e8387828801611d70565b60008060008060808587031215611f50578384fd5b843567ffffffffffffffff80821115611f67578586fd5b818701915087601f830112611f7a578586fd5b8135602082821115611f8e57611f8e6129aa565b808202611f9c82820161287b565b8381528281019086840183880185018e1015611fb6578b8cfd5b8b97505b85881015611fdf57611fcb81611d49565b835260019790970196918401918401611fba565b50995050508801359550611ff7905060408801611d60565b9350606087013591508082111561200c578283fd5b50611e8387828801611d70565b60006020828403121561202a578081fd5b5035919050565b600060208284031215612042578081fd5b8135611839816129c0565b60006020828403121561205e578081fd5b8151611839816129c0565b600081518084526120818160208601602086016128e8565b601f01601f19169290920160200192915050565b6bffffffffffffffffffffffff19606094851b811682529290931b9091166014830152602882015260480190565b600082516120d58184602087016128e8565b9190910192915050565b600083516120f18184602088016128e8565b8351908301906121058183602088016128e8565b01949350505050565b6001600160a01b0391909116815260200190565b6001600160a01b038581168252841660208201526040810183905260806060820181905260009061215590830184612069565b9695505050505050565b6001600160a01b03898116825288166020820152604081018790526101006060820181905260009061219383820189612069565b9615156080840152505092151560a084015260c083019190915260e090910152949350505050565b6020808252825182820181905260009190848201906040850190845b818110156121f3578351835292840192918401916001016121d7565b50909695505050505050565b901515815260200190565b90815260200190565b918252602082015260400190565b6000602082526118396020830184612069565b60208082526032908201527f4552433732313a207472616e7366657220746f206e6f6e20455243373231526560408201527131b2b4bb32b91034b6b83632b6b2b73a32b960711b606082015260800190565b60208082526026908201527f4f776e61626c653a206e6577206f776e657220697320746865207a65726f206160408201526564647265737360d01b606082015260800190565b6020808252601c908201527f4552433732313a20746f6b656e20616c7265616479206d696e74656400000000604082015260600190565b60208082526024908201527f4552433732313a207472616e7366657220746f20746865207a65726f206164646040820152637265737360e01b606082015260800190565b60208082526019908201527f4552433732313a20617070726f766520746f2063616c6c657200000000000000604082015260600190565b602080825260169082015275416c7265616479206163636570742070726f706f736560501b604082015260600190565b6020808252602c908201527f4552433732313a206f70657261746f7220717565727920666f72206e6f6e657860408201526b34b9ba32b73a103a37b5b2b760a11b606082015260800190565b6020808252600f908201526e283632b0b9b2903830bc903332b29760891b604082015260600190565b60208082526018908201527f416e206f6666657220616c7265616479206578697374732e0000000000000000604082015260600190565b60208082526038908201527f4552433732313a20617070726f76652063616c6c6572206973206e6f74206f7760408201527f6e6572206e6f7220617070726f76656420666f7220616c6c0000000000000000606082015260800190565b6020808252602a908201527f4552433732313a2062616c616e636520717565727920666f7220746865207a65604082015269726f206164647265737360b01b606082015260800190565b60208082526029908201527f4552433732313a206f776e657220717565727920666f72206e6f6e657869737460408201526832b73a103a37b5b2b760b91b606082015260800190565b6020808252602e908201527f45524337323155524953746f726167653a2055524920736574206f66206e6f6e60408201526d32bc34b9ba32b73a103a37b5b2b760911b606082015260800190565b6020808252818101527f4552433732313a206d696e7420746f20746865207a65726f2061646472657373604082015260600190565b602080825260139082015272283937b837b9b2903737ba1032bc34b9ba399760691b604082015260600190565b60208082526031908201527f45524337323155524953746f726167653a2055524920717565727920666f72206040820152703737b732bc34b9ba32b73a103a37b5b2b760791b606082015260800190565b6020808252602c908201527f4552433732313a20617070726f76656420717565727920666f72206e6f6e657860408201526b34b9ba32b73a103a37b5b2b760a11b606082015260800190565b6020808252818101527f4f776e61626c653a2063616c6c6572206973206e6f7420746865206f776e6572604082015260600190565b60208082526029908201527f4552433732313a207472616e73666572206f6620746f6b656e2074686174206960408201526839903737ba1037bbb760b91b606082015260800190565b6020808252602f908201527f4552433732314d657461646174613a2055524920717565727920666f72206e6f60408201526e3732bc34b9ba32b73a103a37b5b2b760891b606082015260800190565b60208082526021908201527f4552433732313a20617070726f76616c20746f2063757272656e74206f776e656040820152603960f91b606082015260800190565b60208082526031908201527f4552433732313a207472616e736665722063616c6c6572206973206e6f74206f6040820152701ddb995c881b9bdc88185c1c1c9bdd9959607a1b606082015260800190565b6020808252601f908201527f43616e6e6f74207472616e7366657220736f756c20626f6e6420746f6b656e00604082015260600190565b6020808252601f908201527f5265656e7472616e637947756172643a207265656e7472616e742063616c6c00604082015260600190565b9182526001600160a01b0316602082015260400190565b60405181810167ffffffffffffffff8111828210171561289d5761289d6129aa565b604052919050565b600082198211156128b8576128b861297e565b500190565b6000826128cc576128cc612994565b500490565b6000828210156128e3576128e361297e565b500390565b60005b838110156129035781810151838201526020016128eb565b83811115610eb25750506000910152565b60028104600182168061292857607f821691505b6020821081141561294957634e487b7160e01b600052602260045260246000fd5b50919050565b60006000198214156129635761296361297e565b5060010190565b60008261297957612979612994565b500690565b634e487b7160e01b600052601160045260246000fd5b634e487b7160e01b600052601260045260246000fd5b634e487b7160e01b600052604160045260246000fd5b6001600160e01b0319811681146108da57600080fdfea264697066735822122011e0226d3c3c3d7c9d6b571f0cfbb98b990d504db37e24bf017a2d1b885bf8a364736f6c63430008000033",
  "linkReferences": {},
  "deployedLinkReferences": {}
}